:060000000C9454000C9466
:10000600B70B0C9400000C942A0C0C9400000C9472
:1000160000000C9400000C9400000C9400000C945A
:10002600170A0C9400000C94A7090C9400000C9479
:10003600AE000C9400000C9400000C9400000C948C
:1000460000000C9400000C9400000C9400000A00C0
:100056000F0014000101010101010500200010003C
:1000660008000400020001001027E80364000A00EB
:1000760001000010000110000100000001006002F4
:10008600540001006802560001006A02580006008A
:1000960079025A000100AE0260000200710580007C
:1000A6000000F894EE27ECBBF1E0FBBFEBBFE5BF29
:1000B600F8E1F1BDE1BD8DE0A2E0BB27ED938A95A5
:1000C600E9F780E098E0A0E6ED930197E9F7E2E82A
:1000D600F0E085919591009761F0A591B591059015
:1000E6001590BF01F00105900D920197E1F7FB0114
:1000F600F0CFEFE5EDBFE8E0EEBFC0E6D2E00C944E
:10010600B912E0E0E0937102A0917102A63008F501
:10011600E0917102F0E0EE58FD4FBF01E0917102EF
:10012600A2E6B0E0F0E0EE0FFF1FEA0FFB1F0E9411
:10013600AD18A881B981EA23FB23A0E0B0E00E94B4
:10014600F917DB01EC93E0917102EF5FE093710226
:10015600DBCF229608956A937A93AA93BA93EA9389
:10016600FA93EFB7EA931A930A931BB10CB1902E48
:10017600E12FEC7111F5E0916E050E94CA14AE0FE5
:10018600BF1FE02FFF27662777270E94A818A09198
:100196006E05AF5FA0936E05A83719F4E0E0E09313
:1001A6006E05A0917005AF5FA0937005A83729F47E
:1001B600E0E0E0937005689436F809911991E991A9
:1001C600EFBFF991E991B991A99179916991189542
:1001D6005D9BFECFE881ECB967C022FE02C035FE0A
:1001E60001C01EC00E94D014E5E8F2E0FA93EA933B
:1001F600E6E8F2E0FA93EA93E4E8F2E0FA93EA93A7
:100206000E948314E0E0EA930E9417146F01E091C4
:100216008102F0E0FA93EA930E948400E89422F8BF
:100226000895E881E03029F49498959896989798DF
:100236003BC0E13029F4949A95989698979834C0E3
:10024600E23029F49498959A969897982DC0E330C1
:1002560029F4949A959A9698979826C0E43029F4AA
:1002660094989598969A97981FC0E53029F4949A91
:100276009598969A979818C0E63029F49498959A86
:10028600969A979811C0E73029F4949A959A969A77
:1002960097980AC0E83011F4949803C0E93021F425
:1002A600949A95989698979A21960895A091B8024F
:1002B600A23010F40C944604A0917002A63010F0FF
:1002C6000C942E04E0917002E03011F00C94D301EE
:1002D600E0918702E03071F4E3E0BE1610F4BB2033
:1002E60049F4A091AF02A33021F4E0918702E030F7
:1002F60009F021C0E0E0E03011F4AE9801C0AE9AFA
:10030600E03011F4AC9801C0AC9AE03011F4AB982F
:1003160001C0AB9AE03011F4AA9801C0AA9AE03065
:1003260011F4A99801C0A99AE03011F4A89801C067
:10033600A89AAD9A24C0E0E0E03011F4AE9801C06E
:10034600AE9AE03011F4AD9801C0AD9AE03011F4E8
:10035600AC9801C0AC9AE03011F4AB9801C0AB9AEE
:10036600E03011F4AA9801C0AA9AE03011F4A998D5
:1003760001C0A99AE03011F4A89801C0A89A24FEF9
:1003860008C0E091AF02E03021F0A091B002A630A3
:1003960008F005C020FE02C0AE9A01C0AE9861C149
:1003A600E13011F00C941F02E0E0E03011F4AE9859
:1003B60001C0AE9AE03011F4AD9801C0AD9AE030BC
:1003C60011F4AB9801C0AB9AE03011F4AA9801C0C1
:1003D600AA9AE03011F4A99801C0A99AE03011F464
:1003E600A89801C0A89AAC9A24FE1AC0E091B0025F
:1003F600E03021F0A091B002A63089F424FE0FC0AF
:10040600A091AF02A23051F0A33041F0A43031F0F8
:10041600A53021F0A63011F0A13009F401C00BC0BF
:1004260020FC06C0E1E0EB1519F0E2E0EB1511F453
:10043600AE9A01C0AE9815C1E23011F00C94630279
:10044600E0E0E03011F4AE9801C0AE9AE03011F46D
:10045600AD9801C0AD9AE03011F4AC9801C0AC9AE9
:10046600E03011F4AA9801C0AA9AE03011F4A998D4
:1004760001C0A99AE03011F4A89801C0A89AAB9AD5
:1004860024FE17C0A091B002A13011F0A73079F474
:10049600A091AF02A23051F0A33041F0A43031F068
:1004A600A53021F0A63011F0A13009F401C001C039
:1004B60001C005C020FE02C0AE9A01C0AE98D1C0F0
:1004C600E33011F00C94AD02E0E0E03011F4AE98A8
:1004D60001C0AE9AE03011F4AD9801C0AD9AE0309B
:1004E60011F4AC9801C0AC9AE03011F4AB9801C09D
:1004F600AB9AE03011F4A99801C0A99AE03011F442
:10050600A89801C0A89AAA9A24FE18C0A091B00281
:10051600A23011F0A83089F424FE0FC0A091AF02DA
:10052600A23051F0A33041F0A43031F0A53021F0D3
:10053600A63011F0A13009F401C00BC020FC06C0A2
:10054600E2E0EB1519F0E3E0EB1511F4AE9A01C009
:10055600AE9887C0E43011F00C94ED02E0E0E03094
:1005660011F4AE9801C0AE9AE03011F4AD9801C016
:10057600AD9AE03011F4AC9801C0AC9AE03011F4B9
:10058600AB9801C0AB9AE03011F4AA9801C0AA9AC0
:10059600E03011F4A89801C0A89AA99A24FE13C0C5
:1005A600A091B002A33011F0A93059F4A091AF0286
:1005B600A23031F0A33021F0A43011F0A53009F4B7
:1005C60001C001C001C005C020FE02C0AE9A01C034
:1005D600AE9847C0E53011F00C943403E0E0E0300B
:1005E60011F4AE9801C0AE9AE03011F4AD9801C096
:1005F600AD9AE03011F4AC9801C0AC9AE03011F439
:10060600AB9801C0AB9AE03011F4AA9801C0AA9A3F
:10061600E03011F4A99801C0A99AA89AA2E0B0E026
:100626000E94B118E03011F024FE16C024FE13C05B
:10063600A091B002A43011F0AA3059F4A091AF02F3
:10064600A23031F0A33021F0A43011F0A53009F426
:1006560001C001C001C005C020FE02C0AE9A01C0A3
:10066600AE98E091EF02E03051F024FC08C0A09172
:10067600F802A33010F0AD3008F001C001C0ABC0E5
:10068600E091EA02E03041F4A091EB02E091EC0245
:10069600AE0FA23008F489C0E091F402E03029F5EB
:1006A6000E94DE1420F0E091EA02E03009F418C05E
:1006B600E091EA02E13051F4E0917002A2E0B3E089
:1006C6000E94E414EC910E94EA1408C0E0917002C2
:1006D600A6E4B3E00E94E4140E94EF14BE2E04C008
:1006E6000E94F814E093F4025FC0E091F502E03056
:1006F60029F50E94DE1420F0E091EA02E03009F4C8
:1007060018C0E091EA02E13051F4E0917002AAE1EA
:10071600B3E00E94E414EC910E94EA1408C0E09150
:100726007002AEE5B3E00E94E4140E94EF14BE2E00
:1007360004C00E94F814E093F50236C0E091F60278
:10074600E03091F40E94DE1420F0E091EB02E130FB
:1007560009F005C00E94FD140E94011504C00E9404
:10076600F814E093F60220C0E091F702E030E1F4DD
:100776000E94DE1420F0E091EC02E13009F009C09D
:100786000E94FD14ED51FD4FE0810E94EA14BE2E39
:100796000BC0E0E0E093F702E093F602E093F50287
:1007A600E093F402E093F20215C0E091EB02E1302F
:1007B60029F40E94FD140E9401150CC0E091EC0280
:1007C600E13041F40E94FD14ED51FD4FE0810E949D
:1007D600EA14BE2E3BC0E091CC02A091AC02AE174B
:1007E60050F00E940915EA1730F0A091CC02A03013
:1007F60011F024FE01C009C00E94FD14EA55FD4F08
:100806000E941115E2E0BE2E21C0E091CB02A0911C
:10081600AD02AE1750F00E941515EA1730F0A09100
:10082600CB02A03011F024FE01C009C00E94FD14C5
:10083600E654FD4F0E941115E3E0BE2E07C00E944C
:10084600FD14E957FD4F0E941115BB24E09170027B
:10085600EF5FE09370020E940915AE1718F0E0E012
:10086600E093AC020E941515AE1718F0E0E0E09395
:10087600AD02A0917002A63018F0E0E0E09370029D
:10088600E0E0E093B80208950E941D15A091910240
:100896000E943215E0919202EA0F0E9437150E94DB
:1008A6003D150E9444150E944B150895E091F902EA
:1008B600E03011F00C940D090E945115A236E0E0CB
:1008C600BE07E0E08E07E0E09E0781F5E2E60E94C3
:1008D6005A15A0916F02A63060F40E946115E9577F
:1008E600FD4FE081E05DEA930E94EB000E946515F2
:1008F600F0CFE0E3EA930E94EB00E3E60E945A158C
:10090600A0916F02A63060F40E946115EA55FD4F72
:10091600E081E05DEA930E94EB000E946515F0CF4E
:10092600E5E6EA930E94EB000E946B150E945115C2
:10093600A837E0E0BE07E0E08E07E0E09E0711F092
:100946000C942705689435F8E0E0E0936E050E9464
:1009560078150E947E15E937A0E0FA07A0E06A073D
:10096600A0E07A0711F00C941C05E0918E03F0913B
:100976008F0360919003709191030E948715E09315
:100986008D02E0919203F09193036091940370912C
:1009960095030E948715E0938E02E0919A03F091E9
:1009A6009B0360919C0370919D030E948715E093C1
:1009B6008F02E0919E03F0919F036091A0037091D6
:1009C600A1030E948715E0939002E091A603F0919F
:1009D600A7036091A8037091A9030E948715E0936D
:1009E60091020E948C15E09392020E949515E09365
:1009F600A6020E949E15E093A7020E94A715E09307
:100A0600A802E091C203F091C3036091C403709100
:100A1600C5030E948715E093A9020E94B015E093D2
:100A2600AA020E94B915E093AB020E944704EBE6C6
:100A360001C0E2E7EA930E94EB00E89435F80E94D1
:100A46006B15E0E0E0936E050E94C21511F00C9460
:100A56000809E8ECF0E0FA93EA930E94C417E091E3
:100A66003E04F0913F0460914004709141040E945D
:100A76008715E093D802E0914204F0914304609117
:100A86004404709145040E948715E093D902A09111
:100A9600D8020E943215E091D902EA0FE093F802DB
:100AA600A091D8020E943215E091D902AE0FA33070
:100AB60038F0F001AE2FE091D902AE0FAD3008F05C
:100AC6009DC30E948C15E093CD02E091AE03F09198
:100AD600AF036091B0037091B1030E948715E09354
:100AE600CE020E949515E093CF020E949E15E093D8
:100AF600D002E091BA03F091BB036091BC03709100
:100B0600BD030E948715E093D1020E94A715E093CA
:100B1600D2020E94CB150E94D4150E94DD150E94B8
:100B2600E615E093FC02F093FD020E94F7150E9481
:100B3600D4150E9400160E94E615E093FE02F0937B
:100B4600FF020E94B015A6E4B3E00E940916AAE4CB
:100B5600B3E00E94B9150E940916AEE4B3E00E9404
:100B66007E150E940E16A2E5B3E0E091DE03F09139
:100B7600DF036091E0037091E1030E940E160E946C
:100B860010160E943F18A6E5B3E00E9417160E94B1
:100B960010160E941E16AAE5B3E00E941716E091F1
:100BA6000604F091070460910804709109040E94FC
:100BB6008715AEE5B3E00E940916A2E6B3E0E09120
:100BC6000A04F0910B0460910C0470910D040E94CC
:100BD6000E16A6E6B3E0E0910E04F0910F046091C4
:100BE6001004709111040E940E16AAE6B3E0E0917B
:100BF6001204F091130460911404709115040E947C
:100C06000E160E9424160E943F18AEE6B3E00E941C
:100C160017160E9424160E941E16A2E7B3E00E9431
:100C260017160E94CB15A6E7B3E00E940916AAE79D
:100C3600B3E00E94DD150E940916AEE7B3E0E0912D
:100C4600EE03F091EF036091F0037091F1030E94BF
:100C56000E16A0914603B0914703809148039091E8
:100C660049030E942B16E0914A03F0914B036091D1
:100C76004C0370914D030E9467197F936F93FF9306
:100C8600EF93E0914E03F0914F0360915003709102
:100C960051030E943416DF01CB01E0915203F0911B
:100CA600530360915403709155030E943B160E94B2
:100CB6004016AF91BF918F919F910E9467197F93C4
:100CC6006F93FF93EF93A0917603B0917703809192
:100CD6007803909179030E9447167F936F93FF9351
:100CE600EF93E0917A03F0917B0360917C0370911E
:100CF6007D030E943416AF91BF918F919F910E9400
:100D06003B16E0917E03F0917F0360918003709122
:100D160081030E943B160E944E16AF91BF918F91A0
:100D26009F910E946719E0933E03F0933F036093FF
:100D3600400370934103A0913E03B0913F0380911D
:100D46004003909141030E945516E0933203F093BD
:100D5600330360933403709335030E945E160E943A
:100D66005718E0930203F093030360930403709310
:100D760005030E945E160E946B160E9470160E9462
:100D86005718E0930603F0930703609308037093E4
:100D960009030E9475160E947E160E9480160E9404
:100DA6005718E0930A03F0930B0360930C037093B8
:100DB6000D030E9475160E9485160E9487160E94D2
:100DC6005718E0930E03F0930F036093100370938C
:100DD60011030E9475160E948C160E948E160E94A0
:100DE6005718E0931203F093130360931403709360
:100DF60015030E9475160E949316E0931603F0934E
:100E0600170360931803709319030E94F715A2E85D
:100E1600B3E00E940916A6E8B3E00E9400160E94FD
:100E26000916AAE8B3E0E0912204F0912304609148
:100E36002404709125040E940E16A0915E03B091C1
:100E46005F0380916003909161030E942B16E091ED
:100E56006203F091630360916403709165030E94DD
:100E660067197F936F93FF93EF93E0916603F09179
:100E7600670360916803709169030E943416DF016D
:100E8600CB01E0916A03F0916B0360916C03709162
:100E96006D030E943B160E944016AF91BF918F9141
:100EA6009F910E9467197F936F93FF93EF93A09191
:100EB6008203B091830380918403909185030E94FD
:100EC60047167F936F93FF93EF93E0918603F0911C
:100ED600870360918803709189030E943416AF914D
:100EE600BF918F919F910E943B16E0918A03F091EA
:100EF6008B0360918C0370918D030E943B160E94B8
:100F06004E16AF91BF918F919F910E946719E09302
:100F16004203F09343036093440370934503A09107
:100F26004203B091430380914403909145030E948C
:100F36005516E0933603F0933703609338037093A6
:100F460039030E9497160E945718E0931A03F093EC
:100F56001B0360931C0370931D030E9497160E9447
:100F66006B160E9470160E945718E0931E03F093AA
:100F76001F0360932003709321030E94A4160E940E
:100F86007E160E9480160E945718E0932203F09363
:100F9600230360932403709325030E94A4160E94E2
:100FA60085160E9487160E945718E0932603F09331
:100FB600270360932803709329030E94A4160E94B6
:100FC6008C160E948E160E945718E0932A03F093FF
:100FD6002B0360932C0370932D030E94A4160E948A
:100FE6009316E0932E03F0932F03609330037093D0
:100FF6003103E0915E04F0915F04609160047091AA
:1010060061040E948715A0E1B7E280E090E00E94AB
:101016000C187F936F93FF93EF93E0916204F09126
:10102600630460916404709165040E948715A8EEBC
:10103600B3E080E090E00E940C18AF91BF918F91D1
:101046009F910E94D0177F936F93FF93EF93E09148
:101056006604F091670460916804709169040E94C7
:10106600AD16AF91BF918F919F910E94D0177F933C
:101076006F93FF93EF93E0916A04F0916B04609194
:101086006C0470916D040E94B516AF91BF918F915B
:101096009F910E94D517E0916E04F0916F046091C4
:1010A6007004709171040E9487150E94D0177F9377
:1010B6006F93FF93EF93E0917E04F0917F0460912C
:1010C6008004709181040E94AD167F936F93FF9305
:1010D600EF93E0918204F09183046091840470910F
:1010E60085040E94B516AF91BF918F919F910E9482
:1010F600D517E0918604F091870460918804709179
:1011060089040E9487150E94D017AF91BF918F91D5
:101116009F910E94D017E0933A03F0933B036093AC
:101126003C0370933D03E0E0E093DA020E94BD16B3
:101136000E9470160E945718E093DB020E94BD16AB
:101146000E947E160E9480160E945718E093DC02C9
:101156000E94BD160E9485160E9487160E94571887
:10116600E093DD020E94BD160E948C160E948E1628
:101176000E945718E093DE020E94BD160E94931645
:10118600E093DF02E0912A05F0912B0560912C0592
:1011960070912D050E948715E093E002E0912E05DF
:1011A600F0912F0560913005709131050E948715E9
:1011B600E093E102E0913205F09133056091340548
:1011C600709135050E948715E093E202E091D802FE
:1011D600E093E302E091D902E093E402E0E0E093D9
:1011E600E502E091E002E093E602E091E102E0939D
:1011F600E702E091E202E093E80207C0E0E0E09354
:10120600F902E093D902E093D8020E946B15E0E060
:10121600E0936E050895E091ED02E03011F024FEB2
:1012260001C021C00E9478150E94C215B9F4E1E000
:10123600E093F902E0E0E0936F02A0916F02A83715
:1012460068F4E0916F020E94CA14AE0FBF1FEC91C2
:10125600EA930E94EB000E946515EFCF0E946B1582
:10126600E0E0E0936E050895E091FA02E03031F493
:10127600A091F802A33010F0AD3008F057C0E0910D
:10128600D302E030D9F40E94C616E091CE02AE0F2A
:10129600E091FB02AE1730F00E94C616E091CE0236
:1012A600EA0F06C00E94C616E091CE02EA0FE85E7B
:1012B600A091FB02EA1BE093F3021CC0E091D3026B
:1012C600E030C1F00E94C6160E94C916A83140F04F
:1012D6000E94C6160E94C916E8E10E947C1808C042
:1012E6000E94C616E091CE02EA0FA091FB02EA0F19
:1012F600E093F302E091F302EA93A091CF020E94F9
:101306003215E091D002EA0FEA93A091D1020E9431
:101316003215E091D202EA0FEA930E947214E1E0DC
:10132600F0E0E0930003F09301030BC0E091FA02B2
:10133600E03049F0E0910003F0910103309719F491
:10134600E0E0E093FA0208950A921A92FA926A93FA
:101356007A938A939A93AA93BA93EA93FA93EFB7F6
:10136600EA93E82D0E94FF178E2EE091B802EF5FF8
:10137600E093B802E0916502EF5FE09365020E9498
:101386005901C8991AC0E0916302E03079F0E09102
:10139600AF02EF5FE093AF02A091AF02A73018F063
:1013A600E1E0E093AF02E0E0E0936302689424F8A2
:1013B600E0E0E093F902AE2E27C0C99920C0E09183
:1013C6006402E030C9F0E091B002EF5FE093B00252
:1013D600A091B002A53020F0A091AF02A33009F48D
:1013E60001C004C0A091B002AB3018F0E0E0E09379
:1013F600B002E0E0E0936402689425F804C0CA995C
:1014060003C0689426F8AA24EFE4E2BFE991EFBF8F
:10141600F991E991B991A9919991899179916991F6
:10142600F990199009901895AA93BA93EA93FA93AA
:10143600EFB7EA93EFEFEDBDEFECECBDE0916102A3
:10144600E03011F40C94A50BA0916B02A13029F0A9
:10145600E0916B02E03009F0F7C0E0916B02E030FA
:1014660011F00C947E0AE0916C02E03019F40E94AF
:10147600D0163EC0E13029F4EDE0E0936802E1E0E9
:1014860037C0E23029F4EBE0E0936802E2E030C0D6
:10149600E33029F4EBE0E0936802E3E029C0E430AE
:1014A60029F4EAE0E0936802E4E022C0E53029F49A
:1014B600EAE0E0936802E5E01BC0E63029F4EBE0E1
:1014C600E0936802E6E014C0E73029F4EBE0E0932D
:1014D6006802E7E00DC0E83029F4EBE0E09368022B
:1014E600EAE006C0E93031F4E0E0E0936802EFE0BC
:1014F600E093690247C0E0916D02E03019F40E9462
:10150600D0163EC0E13029F4EDE0E0936802E1E058
:1015160037C0E23029F4EBE0E0936802E2E030C045
:10152600E33029F4EBE0E0936802E3E029C0E4301D
:1015360029F4EAE0E0936802E4E022C0E53029F409
:10154600EAE0E0936802E5E01BC0E63029F4EBE050
:10155600E0936802E6E014C0E73029F4EBE0E0939C
:101566006802E7E00DC0E83029F4EBE0E09368029A
:10157600EAE006C0E93031F4E0E0E0936802EFE02B
:10158600E0936902E0916902A0916702EA1758F1B7
:10159600939AE0917902E03011F4C59801C0C59A9A
:1015A600E0917A02E03011F4C69801C0C69AE09143
:1015B6007B02E03011F4C79801C0C79AE0917C0223
:1015C600E03011F4DD9801C0DD9AE0917D02E03053
:1015D60011F4DE9801C0DE9AE0917E02E03011F44B
:1015E600DF9801C0DF9AE0916802A0916702EA17CE
:1015F60058F1AF9AE0917902E03011F4C59801C034
:10160600C59AE0917A02E03011F4C69801C0C69AF4
:10161600E0917B02E03011F4C79801C0C79AE091CF
:101626007C02E03011F4DD9801C0DD9AE0917D0284
:10163600E03011F4DE9801C0DE9AE0917E02E030DF
:1016460011F4DF9801C0DF9AA0916B02A23011F06D
:101656000C94860B882061F1939AE0917702E03032
:1016660011F4C59801C0C59AE0917602E03011F4F4
:10167600C69801C0C69AE0917502E03011F4C79889
:1016860001C0C79AE0917402E03011F4DD9801C000
:10169600DD9AE0917302E03011F4DE9801C0DE9A23
:1016A600E0917202E03011F4DF9801C0DF9A2BC09E
:1016B600AF9AE0917702E03011F0C59801C0C59A63
:1016C600E0917602E03011F0C69801C0C69AE0912A
:1016D6007502E03011F0C79801C0C79AE091740214
:1016E600E03011F0DD9801C0DD9AE0917302E03040
:1016F60011F0DE9801C0DE9AE0917202E03011F03E
:10170600DF9801C0DF9AE0916A02A0916702AE17E6
:1017160028F0E0E0E09367029398AF98E0916102C9
:10172600D301F0E0AE17BF0720F09398AF98662478
:101736007724F30131963F01E0916702EF5FE09372
:1017460067020BC0E0E0E03011F4AF9801C0AF9A39
:10175600E03011F4939801C0939AE991EFBFF991A3
:10176600E991B991A9911895AA93EA93FA93EFB7DB
:10177600EA93689434F822F8E091AC02EF5FE093C4
:10178600AC02E091AD02EF5FE093AD02E091B502ED
:10179600EF5FE093B502E091F202EF5FE093F202B1
:1017A600E0910003F09101033196E0930003F0937A
:1017B600010326FE05C0E0916202EF5FE09362023C
:1017C60024FE06C0A394E0916302EF5FE0936302F8
:1017D60025FE05C0E0916402EF5FE0936402A091EC
:1017E600F802A33040F0AD3030F4E091E902E03089
:1017F60011F024FE06C024FC03C0E3E0EB1509F05B
:1018060003C0E89420F802C0E1E02E26A0916B0206
:10181600A130B9F4E0916D02E03011F4689421F83A
:10182600A0916D02A93011F4E89421F821FC04C0BE
:10183600E0916D02E15003C0E0916D02EF5FE0932D
:101846006D02E991EFBFF991E991A9911895189563
:1018560024FEC0C5A091AF02A13011F00C94AE0CCD
:101866000E94D516E0916102E0938802E0916B0236
:10187600E0938902E0916C02E0938A02E0E0E09353
:101886008B020E94DA16B1F426FE04C0E0916202D1
:10189600E03009F40EC0E0916102EF5FE09361026F
:1018A600A0916102A33018F0E0E0E09361020E948B
:1018B600E01651C0E13031F526FE04C0E091620227
:1018C600E03009F41EC0E0916B02EF5FE0936B021B
:1018D600A0916B02A33018F0E0E0E0936B02E09178
:1018E6006C02E03021F0E0916B02E03009F403C0B5
:1018F600E0E0E0936C020E94D016E09369020E9439
:10190600E01629C0E23011F526FE04C0E09162021D
:10191600E03009F41AC0E0916C02EF5FE0936C02CC
:10192600A0916C02AA3018F0E0E0E0936C02E0911E
:101936006C02E03021F0E0916B02E03009F403C064
:10194600E0E0E0936B020E94E01605C0E33019F474
:10195600E0E0E093B002A091AF02A23011F00C9447
:10196600610D0E94D516E091B702E0938802E091DE
:10197600B102E0938902E091B202E0938A02E0911B
:10198600B302E0938B02E091B4020E94DA16B1F43E
:1019960026FE04C0E0916202E03009F40EC0E09138
:1019A600B702EF5FE093B702A091B702AA3018F032
:1019B600E0E0E093B7020E94EA1680C0E13029F524
:1019C60026FE04C0E0916202E03009F41DC0E091F9
:1019D600B102EF5FE093B102A091B102A33018F01B
:1019E600E0E0E093B102A091B102A23021F4A0910F
:1019F600B202A43008F403C0E0E0E093B2020E9411
:101A0600EA16E1E0E093B90259C0E23011F526FE8C
:101A160004C0E0916202E03009F41AC0E091B2021B
:101A2600EF5FE093B202A091B202AA3048F4A0910F
:101A3600B102A23021F4A091B202A43008F403C08E
:101A4600E0E0E093B2020E94EA16E1E0E093B90218
:101A560035C0E330C9F426FE04C0E0916202E030EE
:101A660009F411C0E091B302EF5FE093B302A091D5
:101A7600B302A63018F0E0E0E093B3020E94EA1643
:101A8600E1E0E093B9021AC0E430C1F426FE04C0D6
:101A9600E0916202E03009F411C0E091B402EF5F18
:101AA600E093B402A091B402AA3018F0E0E0E0930B
:101AB600B4020E94EA16E1E0E093B902A091AF02F7
:101AC600A33011F00C94F90EA091B002A53010F0DD
:101AD600AB30B1F4E3E0E0938702E0919F02E0933C
:101AE6008802E0918D02E0938902E0918E02E093F4
:101AF6008A02E0918F02E0938B02E091900216C079
:101B0600E091A602E0938702E091A702E0938802A3
:101B1600E091A802E0938902E091A902E0938A028B
:101B2600E091AA02E0938B02E091AB02E0938C0273
:101B3600E091B002E030C1F426FE04C0E0916202FA
:101B4600E03009F410C0E0919F02EF5FE0939F023E
:101B5600A0919F02AA3018F0E0E0E0939F020E9455
:101B6600EA16689433F842C1E13021F526FE04C036
:101B7600E0916202E03009F41CC0E0918D02EF5F53
:101B8600E0938D02A0918D02A33018F0E0E0E0937F
:101B96008D02A0918D02A23021F4A0918E02A43074
:101BA60008F403C0E0E0E0938E020E94EA1668940F
:101BB60032F81CC1E23009F526FE04C0E09162024B
:101BC600E03009F419C0E0918E02EF5FE0938E02D7
:101BD600A0918E02AA3048F4A0918D02A23021F481
:101BE600A0918E02A43008F403C0E0E0E0938E02D8
:101BF6000E94EA16689432F8F9C0E330C1F426FE72
:101C060004C0E0916202E03009F410C0E0918F0256
:101C1600EF5FE0938F02A0918F02A63018F0E0E00C
:101C2600E0938F020E94EA16689432F8DFC0E4302F
:101C3600C1F426FE04C0E0916202E03009F410C04F
:101C4600E0919002EF5FE0939002A0919002AA309B
:101C560018F0E0E0E09390020E94EA16689432F8E9
:101C6600C5C0E53021F526FE04C0E0916202E030F1
:101C760009F41CC0E091A602EF5FE093A602A091D2
:101C8600A602A43018F0E0E0E093A602A091A60216
:101C9600A33021F4A091A702A23008F403C0E0E02B
:101CA600E093A7020E94EA16689432F89FC0E630D5
:101CB60009F526FE04C0E0916202E03009F419C07D
:101CC600E091A702EF5FE093A702A091A702AA30D6
:101CD60048F4A091A602A33021F4A091A702A23055
:101CE60008F403C0E0E0E093A7020E94EA166894B5
:101CF60032F87CC0E73021F526FE04C0E09162028E
:101D0600E03009F41CC0E091A802EF5FE093A8025E
:101D1600A091A802A23018F0E0E0E093A802E091BA
:101D2600A802E13021F4A091A902A33008F403C06F
:101D3600E0E0E093A9020E94EA16689432F856C0E1
:101D4600E83009F526FE04C0E0916202E03009F4AD
:101D560019C0E091A902EF5FE093A902A091A90240
:101D6600AA3048F4E091A802E13021F4A091A9023A
:101D7600A33008F403C0E0E0E093A9020E94EA164B
:101D8600689432F833C0E930C1F426FE04C0E0910D
:101D96006202E03009F410C0E091AA02EF5FE0931E
:101DA600AA02A091AA02AA3018F0E0E0E093AA02E3
:101DB6000E94EA16689432F819C0EA30B9F426FE91
:101DC60004C0E0916202E03009F410C0E091AB0279
:101DD600EF5FE093AB02A091AB02AA3018F0E0E00F
:101DE600E093AB020E94EA16689432F8A091AF0223
:101DF600A43011F00C949A0F0E94D516E091C802F7
:101E0600E0938802E091C402E0938902E091C50262
:101E1600E0938A02E091C602E0938B02E091C7024A
:101E26000E94DA16C9F426FE04C0E0916202E03090
:101E360009F411C0E091C802EF5FE093C802A091D7
:101E4600C802AA3018F0E0E0E093C8020E94EA1641
:101E5600E1E0E093CA026BC0E130C9F426FE04C09B
:101E6600E0916202E03009F411C0E091C402EF5F34
:101E7600E093C402A091C402AA3018F0E0E0E09317
:101E8600C4020E94EA16E1E0E093C90250C0E230C3
:101E9600C9F426FE04C0E0916202E03009F411C0E4
:101EA600E091C502EF5FE093C502A091C502AA309A
:101EB60018F0E0E0E093C5020E94EA16E1E0E09344
:101EC600C90235C0E330C9F426FE04C0E0916202BF
:101ED600E03009F411C0E091C602EF5FE093C6025C
:101EE600A091C602AA3018F0E0E0E093C6020E9474
:101EF600EA16E1E0E093C9021AC0E430C1F426FE16
:101F060004C0E0916202E03009F411C0E091C7021A
:101F1600EF5FE093C702A091C702AA3018F0E0E095
:101F2600E093C7020E94EA16E1E0E093C902A0919D
:101F3600AF02A53011F00C9441100E94D516E09125
:101F4600E902E0938802E091EA02E0938902E091D7
:101F5600EB02E0938A02E091EC02E0938B02E091BF
:101F6600ED020E94DA16E1F426FE04C0E091620258
:101F7600E03009F414C0E091E902EF5FE093E90272
:101F8600A091E902A23018F0E0E0E093E902E0E077
:101F9600E093ED020E94EA16E1E0E093F0026EC0E3
:101FA600E130C9F426FE04C0E0916202E03009F493
:101FB60011C0E091EA02EF5FE093EA02A091EA0223
:101FC600A33018F0E0E0E093EA020E94EA16E1E0AE
:101FD600E093F00253C0E230C9F426FE04C0E0915B
:101FE6006202E03009F411C0E091EB02EF5FE0938A
:101FF600EB02A091EB02A23018F0E0E0E093EB02D6
:102006000E94EA16E1E0E093F00238C0E330C9F43A
:1020160026FE04C0E0916202E03009F411C0E091AE
:10202600EC02EF5FE093EC02A091EC02A23018F014
:10203600E0E0E093EC020E94EA16E1E0E093F002B1
:102046001DC0E430D9F426FE04C0E0916202E030FF
:1020560009F414C0E091ED02EF5FE093ED02A09168
:10206600ED02A23018F0E0E0E093ED02E0E0E0934C
:10207600E9020E94EA16E1E0E093F002A091AF02C5
:10208600A63011F00C94C7100E94D516E091D30229
:10209600E0938802E091D402E0938902E091D502B0
:1020A600E0938A02E091D602E0938B02E091D70298
:1020B6000E94DA16C9F426FE04C0E0916202E030FE
:1020C60009F411C0E091D302EF5FE093D302A0912F
:1020D600D302A23018F0E0E0E093D3020E94EA16A1
:1020E600E1E0E093F10250C0E13029F526FE04C09C
:1020F600E0916202E03009F41DC0E091D402EF5F86
:10210600E093D402A091D402A23018F0E0E0E0936C
:10211600D402E091D402E13021F4A091D502A4309A
:1021260008F403C0E0E0E093D5020E94EA16E1E07D
:10213600E093F10229C0E23011F526FE04C0E091D9
:102146006202E03009F41AC0E091D502EF5FE09335
:10215600D502A091D502AA3048F4E091D402E1302C
:1021660021F4A091D502A43008F403C0E0E0E09386
:10217600D5020E94EA16E1E0E093F10205C0E330E1
:1021860019F4E0E0E093B002E0916002AE1610F4BC
:102196000C94ED11E0916E02E030A9F0E09161023D
:1021A600A1E0B0E00E94BD18E0916B02AAE1B0E0A8
:1021B6000E94BD18E0916C02ABE1B0E00E94BD1830
:1021C600E0E0E0936E0232FE0DC00E941D15E0E0D5
:1021D6000E9437150E943D150E9444150E944B151A
:1021E600E89432F833FE08C0E0919F02A8E0B0E020
:1021F6000E94BD18E89433F8E091B702E03059F038
:10220600A091B702EAE0EA9FF001A3E0B0E00E94E5
:10221600BD18E1E001C0E0E0A2E0B0E00E94BD1818
:10222600E091B902E030C1F0E0E0E0936F02A091E6
:102236006F02A53070F40E94F116AC5FBF4F0E948A
:102246006115EF54FD4FE0810E94BD180E9465158F
:10225600EECFE0E0E093B902E091C902E03051F13F
:10226600E0E0E0936F02A0916F02A43070F40E9448
:10227600F116A75FBF4F0E946115EC53FD4FE08139
:102286000E94BD180E946515EECFE0E0EA93A0918A
:10229600C4020E943215E091C502EA0FEA93A091AA
:1022A600C6020E943215E091C702EA0F0E94F51697
:1022B600E093C902E091CA02E03049F0E091C80219
:1022C600ADE0B0E00E94BD18E0E0E093CA02E09104
:1022D600C802A0919F02EA1721F4A091C802A0307B
:1022E60009F404C00E94FC16EB5F02C00E94FC16B3
:1022F600E093CB020E940217E091F002E03061F118
:10230600E091EA02E03041F4E091EB02E03021F4A2
:10231600E091EC02E03009F003C0E0E0E093E9026E
:10232600E0E0E0936F02A0916F02A53070F40E9486
:10233600F116A25FBF4F0E946115E751FD4FE08184
:102346000E94BD180E946515EECFE091E902E09368
:10235600EF02E0E0E093F002E091F102E03039F1C3
:10236600A091D4020E943215E091D502EA0FA4E1B1
:10237600B0E00E94BD180E940A17E0E0E0936F02E9
:10238600A0916F02A53070F40E94F116AB5EBF4FAC
:102396000E946115ED52FD4FE0810E94BD180E941A
:1023A6006515EECFE0E0E093FA02E093F102E0E09B
:1023B600E093B002E093AF02E89424F8E093F202CF
:1023C600E093AD02E093AC020E94481A30F8AE2EBC
:1023D600E0936202089524FC02C035FE01C088C065
:1023E600A0917F02EAE00E943118E0938D02E0930B
:1023F6008702A0917F02EAE00E947C18E0938E0299
:10240600E0938802A0918002EAE00E943118E093EE
:102416008F02E0938902A0918002EAE00E947C1874
:10242600E0939002E0938A02A0918102EAE00E9482
:102436003118E0939102E0938B02A0918102EAE0C9
:102446000E947C18E0939202E0938C02A091850290
:10245600EAE00E943118E093A602A0918502EAE024
:102466000E947C18E093A702A0918602EAE00E94EF
:102476003118E093A802A0918602EAE00E947C1837
:10248600E093A902A0918402EAE00E943118E09349
:10249600AA02A0918402EAE00E947C18E093AB02B3
:1024A600D601E4E6F0E00E945218E093BC02D601A1
:1024B600E4E6F0E00E948218DF01EAE0F0E00E9424
:1024C6005218E093BD02D601EAE0F0E00E948218BD
:1024D600FA93EA933FD2E093BE02B29905C0E1E0D7
:1024E600E093BA02DC9A04C0E0E0E093BA02DC981A
:1024F6000895E0918702A091B102EA17D1F4A09164
:10250600B202E0918802EA17A1F4A091B302E09129
:102516008902EA1771F4A091B402E0918A02EA17DF
:1025260041F427FC06C0A2E0B0E00E94B118E030FA
:1025360009F408C0689427F8DB9AE0E0E093B50256
:102546000E941117E091B602A091B502EA1711F4A4
:1025560027FC01C001C0DB98A091B502AD3311F490
:1025660027FC01C002C0E89427F80895E7E0EBBB1A
:10257600E8EFEABBE4E0E8BBEBEFE7BBE0E8E5BB8E
:10258600EFEFE4BBEFE0E2BBE8EFE1BBE3E0E3BF84
:10259600E0E0E2BFECBFEFBDE3E0EEBDEFEFEDBD87
:1025A600E0EFECBDE0E0E7BDE6BDEBBDEABDE9BDB1
:1025B600E8BDE2BDE5BDE4BDE3BDEBB7E066EBBF5C
:1025C600E2E0E5BFE0E0E4BFE0E6EABFE5E0E9BF60
:1025D600E0E0EBB9E8EDEAB9E6E8E0BDE0E0E0BD51
:1025E600EFE2E9B9E0E8E8B9E0E0E0BF0E9472177F
:1025F600E0E0EA93A9E0B0E00E94B118AE2FEAE06D
:10260600EA9FAAE0B0E00E94B118E00DEA93ABE0C1
:10261600B0E00E94B118AE2FEAE0EA9FACE0B0E06D
:102626000E94B118E00D0E94F516EA93E1E0EA93E4
:10263600E0E0EA9314D10E94D014E0917F02E030EA
:1026460041F4E0918002E03021F4A0918102AC33A4
:1026560008F406C0ECE0EA93E0E0EA93EA933FD19F
:102666007894A1E0B0E00E94B118E0936102AAE17B
:10267600B0E00E94B118E0936B02ABE1B0E00E94BB
:10268600B118E0936C020E941117A8E0B0E00E9416
:10269600B118E0939F02ADE0B0E00E94B118E0935C
:1026A600C802A0919F02EA1721F4A091C802A030A7
:1026B60009F404C00E94FC16EB5F02C00E94FC16DF
:1026C600E093CB020E940217E0E0E0936F02A09134
:1026D6006F02A43070F40E946115EC53FD4F0F0198
:1026E6000E94F116A75FBF4F0E9418170E9465153A
:1026F600EECFE0E0E0936F02A0916F02A53020F5E7
:102706000E946115EF54FD4F0F010E94F116AC5F58
:10271600BF4F0E9418170E946115E751FD4F0F0128
:102726000E94F116A25FBF4F0E9418170E94611502
:10273600ED52FD4F0F010E94F116AB5EBF4F0E9496
:1027460018170E946515D8CFA091E902EAE0EA9F22
:10275600F001E093EF020E940A170E94EE110E9418
:10276600F0000E942B0C0E947C120E9459040E94C9
:1027760037090E940E09F1CFFFCF1A930A93EA8117
:102786000E941D17ECEA0E9425170E942E170E2F95
:102796000E948617E02F19810881DAC00E947717F8
:1027A600E9810E943217ECEA0E9437170E948617C9
:1027B600229608950E947717EA810E943217E981CE
:1027C6000E9437170E943E170E948617EA81EA93F5
:1027D6000E94C013E071D1F7BBC00E947717E88151
:1027E6000E943217EEEE0E94421721960895EB8161
:1027F600EA93E981EE0FE85FEA930E94D113EB8139
:10280600EA93E2EAEA93EC81EA930E94DD13EB8114
:10281600EA93E1EAEA93EB81EA930E94DD13EB8106
:10282600EA930E94F01346C022971A93EB810E9406
:102836001D17EAEA0E9425170E944717EA830E949D
:102846002E17E9830E948617A981BA81E7E00E94C4
:10285600E617A5E0B0E00E942C1818812BC01A9349
:10286600EB81E370EB83EA81E03019F0EB81E06104
:10287600EB83E981E03019F0EB81E068EB830E949D
:102886004B17E7E0EA930E94AB17EB810E944217D1
:102896000E944B170E943E170E9451170E942E1746
:1028A6001E2F0E94861717FF03C0E0E0188102C0A2
:1028B600E1E01881249608950E944B170E943E1766
:1028C6000E9451170E9447170E9457170E944717E8
:1028D6000E945E170E9465170E94861725C00E94F7
:1028E6004B170E943E17E8810E946C17E9810E94EF
:1028F6006C17EA81EA930E94C1140E94421728C00D
:102906000E944B17E4E0EA930E94AB170E9451170E
:102916000E9447170E9465170E9447170E945E177C
:102926000E9457170E948617269608950E944B17F5
:10293600E4E0EA930E94AB17EA810E946C17E981F2
:102946000E946C17E881EA930E94C1140E94421704
:1029560023960895E991F99130971AF4E095F09548
:1029660031960895E881E295EF70AE2FAA0FAA0F6F
:10297600EA0FEE0FA991AF70EA0F0895A991EE271D
:10298600AA5012F0E05FFCCFA65FEA0F0895AEE80A
:10299600B3E0F0E00E94EF170895EFE7F2E0FA9354
:1029A600EA93E0E8F2E0FA93EA93E1E8F2E0FA93D8
:1029B600EA930C945F14E091AE02A091F202EA173A
:1029C6000895F0E00E94EF17AE0FBF1F0895EA9337
:1029D6000E941401E1E008950E94A2180E94FB18CB
:1029E600EA930E941401E2E00895E0E0E093F20227
:1029F600E1E00895E0917002F0E00895E652FD4F9F
:102A0600E081EA930E941401BB240895E091AE028E
:102A1600A091CC02EA0FA091AC020895E081EA935E
:102A26000C941401E091AE02A091CB02EA0FA091A2
:102A3600AD020895A0918D02EAE0EA9FF001AE2F63
:102A4600E0918E02EA0FEA93A0918F02EAE0EA9FF4
:102A5600F001AE2FE0919002EA0FEA930895EAE0C2
:102A6600EA9FF001AE2F0895EA930E947214A09196
:102A7600A602F5CFE091A702EA0FEA93A091A80279
:102A8600EECFE091A902EA0FEA93A091AA02E7CF5E
:102A9600E091AB02EA0FEA930C949914A0918E038D
:102AA600B0918F0380919003909191030895EA93DA
:102AB6000E94EB00E0E0E0936F020895E0916F0260
:102AC600F0E00895E0916F02EF5FE0936F020895E2
:102AD600E0E0F0E060E070E0E0938E03F0938F03B7
:102AE60060939003709391030895E4E6F0E0FA93FF
:102AF600EA930C94C417E091DA03F091DB0360913A
:102B0600DC037091DD030895E053F04060407040AF
:102B16000895E091AA03F091AB036091AC03709124
:102B2600AD03F2CFE091B203F091B3036091B40329
:102B36007091B503E9CFE091B603F091B7036091C8
:102B4600B8037091B903E0CFE091BE03F091BF03E3
:102B56006091C0037091C103D7CFE091D203F09189
:102B6600D3036091D4037091D503CECFE091D60301
:102B7600F091D7036091D8037091D903C5CF8EDF4A
:102B8600A432E0E0BE07E0E08E07E0E09E0708958D
:102B9600E091E603F091E7036091E8037091E903A1
:102BA600B3CFAAE0B0E080E090E00E940C18DF010D
:102BB600CB010895E091EA03F091EB036091EC03F9
:102BC6007091ED03A1CF0E94D517ECE3F0E060E031
:102BD60070E00E940C18DF01CB01E4E6F0E060E053
:102BE60070E00E9457180895E0911A04F0911B04B2
:102BF60060911C0470911D0487CFE0911E04F09132
:102C06001F0460912004709121047ECF0E94321926
:102C16000E94A818089578DFF9CFA091FC02B09120
:102C2600FD02EAE0F0E00895662777270E9434194E
:102C36000E94A81808950E947F18FA93EA930C94AC
:102C4600AD14A091FE02B091FF02EAE0F0E0089513
:102C5600E0E0F0E060E271E40E94B519DF01CB012B
:102C66000895A0E0B0E080E291E40E94B5190895CD
:102C76000E946719DF01CB010895E0E0F0E060E70C
:102C860072E40E94031A0895E0E0F0E068EC72E452
:102C96000E94B5190895E0E0F0E66AE677E40E943E
:102CA600031A0895E0E0F0E46CE176E40E94B519B9
:102CB6000E94FB180895A0913203B09133038091CE
:102CC600340390913503E0EAF6E861E070E0089598
:102CD6000E949018DF01CB010895E0E1F7E260E081
:102CE60070E00895A0913203B091330380913403CC
:102CF600909135030895F1DFEBCFE8EEF3E060E065
:102D060070E00895FADFE4CFE4E6F0E060E070E01A
:102D16000895FADFDDCFEAE0F0E060E070E00895C4
:102D2600FADF0E9490180895A0913603B0913703F8
:102D36008091380390913903E0EAF6E861E070E0AB
:102D46000895A0913603B09137038091380390918E
:102D560039030895D9DEA4E6B0E080E090E00E9451
:102D66000C180895D1DEAAE0B0E080E090E00E9461
:102D76000C180895A0913A03B0913B0380913C034F
:102D860090913D030895A091CD0269CEE091CE02C7
:102D9600EA0FA091FB02AE0F0895EFE0E093680200
:102DA600E0E00895E091AF02E09387020895E09392
:102DB6008C02E091B002E0300895E0E0E093620218
:102DC6000E94481A26F8E1E0E0936E020895E0E0DA
:102DD600E09362020E94481A26F80895A0916F02B5
:102DE600B0E00895EA93E0E0EA930E94FA13E0E087
:102DF6000895A091C802EAE0EA9FF0010895A09123
:102E06009F02EAE0EA9FF001E093CC020895A4E174
:102E1600B0E00E94B118E093FB020895A3E0B0E091
:102E26000E94B118E093B60208950E94B118D0012D
:102E3600EC930895EE0FE0691E2F0E9477171A9300
:102E46000C94AB17EA930E94AB170E9477171F5F8B
:102E56001A930C94AB17E0E0EA930C949017EE0FDC
:102E6600E069EA930C94AB17EA930E94AB17E881EA
:102E7600EA930C94AB17E0E0EA930C94AB17EA9351
:102E86000E94AB170C948617E1E0EA930C94901716
:102E96000E947717E0EDEA930C94AB170E94771720
:102EA600E1EDEA930C94AB17EA930E94B514A8815E
:102EB600B981EC930895EA930E94B514AA81BB8167
:102EC600EC93C9CFEA930E94B514AC81BD81EC9313
:102ED6000895EA930E94C114EA930C94AB17C39821
:102EE600C498BB9ABC9815C0BC98BB98EE27000046
:102EF600B49B0895B39B089504D0BC9A02D0BB9AA4
:102F0600E1E06CE007C0BC9ABB9A03D0BB98F9DF3E
:102F1600BC9869E16A95F1F7089578E0BB98F1DF0E
:102F2600B39BFECFEEDF8894B4990894BB9AF1DF89
:102F3600EE1F7A9599F77991772311F4BC9801C021
:102F4600BC9ADFDFBB98E5DFBB9ADBDFBC98D9CF45
:102F5600E99178E0EE0F10F4BC9801C0BC9AD9DF75
:102F6600BB98CFDFB39BFECFCCDFBB9A7A9591F7A8
:102F7600BC98C7DFBB98CDDFE1E0B499EE27BB9ADA
:102F86000895E991F991309639F083E397E0019736
:102F9600F1F7A8953197C9F70895EA0FFB1F681F47
:102FA600791F0895AE0FBF1F861F971F0895F195CD
:102FB600E195F0400895F09560957095E195FF4F85
:102FC6006F4F7F4F0895EE230E2EFD0121F0F595EC
:102FD600E7950A94E1F70895EE0FFF1FEE0FFF1F26
:102FE60008956F2F660F660B762F0895EA17FB0775
:102FF600E1E009F4EE270895EE23E1E009F0EE277B
:103006000895FA9FF02DEB9FF00DEA9FE02DF10D4C
:1030160008957A9F702D6B9F700DF89F700DE99F34
:10302600700D6A9F602D710DFB9F600D711DE89FED
:10303600600D711D8827FA9FF02D610D781FEB9F9B
:10304600F00D611D781FEA9FE02DF10D681F781FB6
:10305600089567D0D6DF0EF4AADF0895002498E01D
:10306600AA0F001C0E1A10F40E0E01C0A1609A954C
:10307600B9F7EA2FA02D08950024112490E1AA0F94
:10308600BB1F001C111C0E1A1F0A18F40E0E1F1E61
:1030960001C0A1609A9599F7FD01D001089541D02C
:1030A600EBDF0EF484DF08953F934F935F93002484
:1030B60011244427552730E2AA0FBB1F881F991FEA
:1030C600001C111C441F551F0E1A1F0A460B570BD6
:1030D60028F40E0E1F1E461F571F01C0A1603A9509
:1030E60059F7FD01BC01D001CA015F914F913F9193
:1030F6000895B4DFEA2F0895BFDFFD010895E8942F
:10310600B7FF04C0A095B09511966894F7FD4FDF00
:10311600B3DFFD010EF44BDF0895C6DFFD01BC01F0
:103126000895E894F7FF02C042DF6894B7FF06C02F
:10313600A095B095119600F8039400FA0895ED91C4
:10314600FD916D917C9113970895ED93FD936D9389
:103156007C9308950590F491E02D0895E199FECFB2
:10316600FF93FFB7F894AEBBBFBBE09AEDB3FFBFCA
:10317600FF910895E19B02C0A895FCCF9FB7F894F4
:10318600AEBBBFBBE09A8DB3E81719F0EDBBE29A70
:10319600E19A9FBF0895552342F4503811F4E0FF99
:1031A60004C03196691F791F6BF050E8572711F458
:1031B6005F93C6C05F3F31F0660F000C5795679569
:1031C600752F08955F9300200AF0C6C0BFC050E86F
:1031D600192E1522880F991F9527550F879550E8A8
:1031E600072E0522660F771F7527550F67950895D9
:1031F600689401C0E8945F93F2DF703818F07F3F5F
:1032060008F49EC056E1571BAAF4519558300EF4A7
:10321600593030F0EFEFFFEF6FEF7FE777F91AC025
:1032260077275523B9F0EE0FFF1F661F771F5A95B4
:10323600D1F710C07727583028F0EF2FF62F672FD9
:103246005850F9CF552331F076956795F795E79560
:103256005A95D1F700200AF4AEDE5F91089568947E
:1032660001C0E894309760407040B1F0002426F029
:10327600772312F400949FDE172E7EE1112032F0A0
:103286007A95EE0FFF1F661F111CF9CFEF2FF62F51
:10329600612D5F938ADF5F9108954F93AF01FD0122
:1032A600DA01AB01BC01CA01402D012C142E4F914D
:1032B6000895EA0FFB1F681F0895E095F095609545
:1032C600EF5FFF4F6F4F08955F9381DF903839F1BD
:1032D600703821F1572F591B13F112F4DEDFFACFA4
:1032E600583118F0AA27BB278827583028F0AB2F6B
:1032F600B82F88275850F9CF552329F08695B795CA
:10330600A7955A95D9F7502D512562F0D2DF38F49A
:103316006795F795E795739513F41EC0BEDF45DFF5
:103326005F910895EA1BFB0B680B51F010F40094B3
:10333600C4DF6623A2F3EE0FFF1F661F7A95CBF755
:10334600EE27FF27662777275F910895EFEFFFEFB8
:103356006FE77FEF5F910895EFEFFFEF6FE77FE78E
:103366005F9108955F9333DF703851F3903841F3DE
:1033760001240894791F23F41CF300203AF3ECCFC0
:103386000F921F932F933F934F931127222799272D
:10339600689FA0018F9F302D410D591F6B9F300DE7
:1033A600411D591F8E9F27D0BF9F25D06A9F23D0CE
:1033B600BE9F1DD0AF9F1BD0AE9F110D291F391F79
:1033C600491F591FE32FF42F652F522F4F913F911D
:1033D6002F911F910F9066232AF0550FEE1FFF1FA6
:1033E600661F02C073954BF2D6DE5F910895100DED
:1033F600211D391F02C0200D311D491F591F089577
:103406005F93E5DE703821F411200AF49FCFA4CF34
:10341600903809F495CF01240894970B1BF4D4F344
:103426000020F3CF792F1F932F933F934F931124AF
:103436001127222733274427552790E2AE17BF07C7
:103446008607410730F0AE1BBF0B860B410B089475
:1034560001C08894551F221F331F111CAA1FBB1FB2
:10346600881F441F9A9551F7F901612D4F913F919D
:103476002F911F91662332F0550FEE1FFF1F661F17
:103486007A9543F288DE5F910895E894EE2309F079
:10349600689408955A934A933A932A931A930A93EF
:1034A60008955D814C813B812A81198108810895A7
:00000001FF
